:100000000C9462000C948A000C948A000C948A0070
:100010000C948A000C948A000C948A000C948A0038
:100020000C948A000C948A000C948A000C948A0028
:100030000C948A000C948A000C948A000C948A0018
:100040000C943B030C948A000C94F2000C94400135
:100050000C948A000C948A000C948A000C948A00F8
:100060000C948A000C948A000000000024002700F1
:100070002A0000000000250028002B0000000000DE
:1000800023002600290004040404040404040202DA
:100090000202020203030303030301020408102007
:1000A0004080010204081020010204081020000012
:1000B0000007000201000003040600000000000029
:1000C0000000AC0211241FBECFEFD8E0DEBFCDBFD1
:1000D00011E0A0E0B1E0E6E0FAE002C005900D9288
:1000E000A031B107D9F711E0A0E1B1E001C01D9244
:1000F000A63CB107E1F710E0C4ECD0E004C02297C1
:10010000FE010E94FD04C23CD107C9F70E94020310
:100110000C9401050C9400008BE991E00E9402020E
:10012000892B31F08BE991E00E9433028093120118
:1001300080911201882379F188E00E94A9049093AC
:10014000110180931001892BF9F086E061E00E9493
:10015000760484E061E00E94760485E060E00E941D
:10016000760468EE73E080E090E00E94A90386E0E8
:1001700061E00E94760484E061E00E94760485E0FC
:1001800061E00E947604F3CF86E061E00E9476048D
:1001900084E060E006C086E061E00E94760484E0CE
:1001A00061E00E94760485E061E00E947604089593
:1001B00086E061E00E940A0484E061E00E940A0493
:1001C00085E061E00E940A0488E060E00E940A0481
:1001D0008BE991E040E855E260E070E00E947B012D
:1001E000089508951F920F920FB60F9211242F9326
:1001F0003F934F938F939F93EF93FF938091C00012
:1002000082FD1DC04091C6002091530130915401E0
:100210002F5F3F4F2F7330708091550190915601A1
:100220002817390771F0E0915301F0915401ED5E08
:10023000FE4F4083309354012093530102C08091BC
:10024000C600FF91EF919F918F914F913F912F9118
:100250000F900FBE0F901F901895E091A701F0919D
:10026000A801E05CFF4F8191919120813181821B37
:10027000930B8F739070892B11F00E94F1000895F9
:100280001F920F920FB60F9211242F933F938F93CB
:100290009F93EF93FF932091970130919801809164
:1002A000990190919A012817390731F48091C10082
:1002B0008F7D8093C10014C0E0919901F0919A0163
:1002C000E95AFE4F20818091990190919A010196FF
:1002D0008F73907090939A01809399012093C60038
:1002E000FF91EF919F918F913F912F910F900FBEB2
:1002F0000F901F901895AF92BF92DF92EF92FF92EE
:100300000F931F93CF93DF93EC017A018B01DD24D0
:10031000403081EE580780E0680780E0780711F0F0
:10032000DD24D39491E0A92EB12CEC89FD89DD2048
:1003300069F0C50108A002C0880F991F0A94E2F76E
:10034000808360E079E08DE390E005C0108260E892
:1003500074E88EE190E0A80197010E94D904215031
:10036000304040405040569547953795279580E15D
:100370002030380720F0DD2011F0DD24D6CFE889C9
:10038000F9893083EA89FB89208319A2EE89FF89E4
:10039000408121E030E0C9010C8C02C0880F991F18
:1003A0000A94E2F7482B4083EE89FF894081C90116
:1003B0000D8C02C0880F991F0A94E2F7482B4083E6
:1003C000EE89FF894081C9010E8C02C0880F991FF8
:1003D0000A94E2F7482B4083EE89FF8980810F8CD5
:1003E00002C0220F331F0A94E2F7209528232083AE
:1003F000DF91CF911F910F91FF90EF90DF90BF9011
:10040000AF900895DC011C96ED91FC911D97E05C86
:10041000FF4F2191319180819181281B390B2F73DE
:100420003070C9010895DC011C96ED91FC911D9777
:10043000E05CFF4F20813181E054F040DF01AE5B92
:10044000BF4F8D919C9111972817390719F42FEF01
:100450003FEF07C08D919C91E80FF91F8081282FF5
:1004600030E0C9010895DC011C96ED91FC911D97C7
:10047000E05CFF4F20813181E054F040DF01AE5B52
:10048000BF4F8D919C9111972817390719F42FEFC1
:100490003FEF10C08D919C911197E80FF91F2081BB
:1004A0008D919C91119701968F73907011969C93EA
:1004B0008E9330E0C9010895DC0191968C9191975B
:1004C000882339F05496ED91FC915597808186FFF1
:1004D000F9CF91961C920895CF93DF93EC01EE85AE
:1004E000FF85E05CFF4F20813181E054F0402F5FB9
:1004F0003F4F2F733070DF01AE5BBF4F8D919C91EA
:10050000119728173907D1F3E05CFF4F8081918163
:10051000E054F040E80FF91F6083EE85FF85E05C52
:10052000FF4F31832083EE89FF89208181E090E0B5
:100530000F8C02C0880F991F0A94E2F7282B2083A2
:1005400081E089A3EC89FD8980818064808381E0DA
:1005500090E0DF91CF91089510929E0110929D013D
:1005600088EE93E0A0E0B0E080939F019093A0011B
:10057000A093A101B093A20184E091E090939C012B
:1005800080939B0183E191E09093A8018093A70160
:1005900087E591E09093AA018093A90185EC90E012
:1005A0009093AC018093AB0184EC90E09093AE010A
:1005B0008093AD0180EC90E09093B0018093AF0107
:1005C00081EC90E09093B2018093B10182EC90E0D5
:1005D0009093B4018093B30186EC90E09093B601C0
:1005E0008093B50184E08093B70183E08093B801E4
:1005F00087E08093B90185E08093BA0181E0809320
:10060000BB010895CF93DF930E94CF030E94D800CF
:10061000CDE2D1E00E948C002097E1F30E942D01F1
:10062000F9CFCF92DF92EF92FF920F931F93CF9368
:10063000DF937C016B018A01C0E0D0E00FC0D601DE
:100640006D916D01D701ED91FC910190F081E02D4C
:10065000C7010995C80FD91F015010400115110598
:1006600071F7CE01DF91CF911F910F91FF90EF9025
:10067000DF90CF9008951F920F920FB60F92112422
:100680002F933F938F939F93AF93BF938091C1011B
:100690009091C201A091C301B091C4013091C501F4
:1006A0000196A11DB11D232F2D5F2D3720F02D5751
:1006B0000196A11DB11D2093C5018093C1019093A6
:1006C000C201A093C301B093C4018091BD01909178
:1006D000BE01A091BF01B091C0010196A11DB11D45
:1006E0008093BD019093BE01A093BF01B093C00160
:1006F000BF91AF919F918F913F912F910F900FBE1E
:100700000F901F9018959FB7F8942091BD013091DC
:10071000BE014091BF015091C00186B5A89B06C0A3
:100720008F3F21F02F5F3F4F4F4F5F4F9FBF542FA1
:10073000432F322F2227280F311D411D511D82E0EA
:10074000220F331F441F551F8A95D1F7B901CA01E3
:100750000895EF92FF920F931F93CF93DF937B0146
:100760008C010E948303EB010EC00E9483036C1B6B
:100770007D0B685E7340C8F30894E108F108010935
:100780001109C851DC4FE114F1040105110569F7A5
:10079000DF91CF911F910F91FF90EF900895789482
:1007A00084B5826084BD84B5816084BD85B5826076
:1007B00085BD85B5816085BDEEE6F0E08081816014
:1007C0008083E1E8F0E01082808182608083808114
:1007D00081608083E0E8F0E0808181608083E1EBEC
:1007E000F0E0808184608083E0EBF0E080818160D4
:1007F0008083EAE7F0E0808184608083808182608A
:100800008083808181608083808180688083109272
:10081000C1000895CF93DF93482F50E0CA01865658
:100820009F4FFC0134914A575F4FFA01849188230E
:1008300069F190E0880F991FFC01E859FF4FA591DD
:10084000B491FC01EE58FF4FC591D491662351F449
:100850002FB7F8948C91932F909589238C9388814E
:1008600089230BC0623061F42FB7F8948C91932FD9
:10087000909589238C938881832B88832FBF06C012
:100880009FB7F8948C91832B8C939FBFDF91CF916E
:100890000895833071F0843028F48130A1F08230E3
:1008A00021F514C08630B1F08730D1F08430E9F4FE
:1008B00004C0809180008F7703C0809180008F7D7D
:1008C00080938000089584B58F7702C084B58F7DB2
:1008D00084BD08958091B0008F778093B000089513
:1008E0008091B0008F7D8093B0000895FF920F93A8
:1008F0001F93F62E482F50E0CA0182559F4FFC01EE
:100900002491CA0186569F4FFC0114914A575F4FAC
:10091000FA0104910023C9F0222319F0822F0E94CA
:100920004904E02FF0E0EE0FFF1FEE58FF4FA591B6
:10093000B4919FB7F894FF2021F48C9110958123F6
:1009400002C08C91812B8C939FBF1F910F91FF90C0
:1009500008950F931F93482F50E0CA0182559F4F6F
:10096000FC012491CA0186569F4FFC0104914A570D
:100970005F4FFA011491112319F420E030E015C003
:10098000222319F0822F0E944904812F90E0880FC2
:10099000991F84589F4FFC01A591B4918C9120E040
:1009A00030E0802311F021E030E0C9011F910F9168
:1009B0000895A1E21A2EAA1BBB1BFD010DC0AA1FA0
:1009C000BB1FEE1FFF1FA217B307E407F50720F0B8
:1009D000A21BB30BE40BF50B661F771F881F991F33
:1009E0001A9469F760957095809590959B01AC017C
:1009F000BD01CF010895EE0FFF1F0590F491E02D8A
:060A00000994F894FFCFF9
:100A0600000000006C0211030202330213025C02B2
:00000001FF
